:020000000C945E
:10000200E8010C946D060C9400000C9400000C9412
:1000120000000C9400000C9400000C9400000C945E
:1000220000000C9463060C9400000C9420060C94BF
:1000320000000C9400000C9400000C9400000C943E
:10004200C3060C9400000C9400000C9400000C9465
:1000520000001027E80364000A00010000100001FC
:100062001000010001010101010000007DBDDDED74
:100072007BBBDBEB77B7D7E7312E54656D702E2053
:10008200616E642068756D696469747920322E77B7
:10009200696E646F777320332E414320756E6974E5
:1000A20020342E4C6967687420352E74696D652082
:1000B200362E6C696768742073657474696E677331
:1000C2000077313A200077323A2000636F6F6C6913
:1000D2006E67207379732E3A200068656174696EC9
:1000E20067207379732E3A20006C69676874206CFC
:1000F2006576656C3A20007475726E2074686520AE
:100102006C69676874206F6E203A20003A002020E4
:10011200007475726E20746865206C69676874205B
:100122006F6666203A2000456E74657220746865B9
:100132002050617373776F7264002A00312E6C69EC
:100142006768742073657474696E6720322E616308
:100152002073657474696E6720202020202020207F
:1001620020202020332E77696E646F7773207365A9
:100172007474696E6720342E6175746F20636F6EBC
:1001820066696775726174696F6E00312E7475727B
:100192006E206F66662F6F6E20322E6175746F202F
:1001A2006C69676874206C6576656C206F6E2F6F62
:1001B200666620332E6175746F2073776974636885
:1001C200206F6E2F6F6666342E73776974636820B2
:1001D2006F6E2F6F66662074696D65006C69676863
:1001E20074207475726E6564206F6666006C696750
:1001F2006874207475726E6564206F6E00696C6C31
:10020200756D696E6174696F6E206C6576656C20C0
:1002120069732073657420746F206D616E75616CF3
:100222002E20456E7465722061206E756D62657256
:100232002028302D39293A00696C6C756D696E6120
:1002420074696F6E206C6576656C206973207365C6
:100252007420746F206175746F2E006175746F2045
:10026200737769746368206973206F66662E006114
:1002720075746F20737769746368206973206F6E79
:100282002E00456E746572207468652074696D6510
:1002920020796F752077616E7420746865206C69AF
:1002A20067687420746F207475726E206F6E287385
:1002B20065706572617465206279202A293A20008E
:1002C200456E746572207468652074696D65207965
:1002D2006F752077616E7420746865206C69676839
:1002E2007420746F207475726E206F666628736551
:1002F200706572617465206279202A293A20003182
:100302002E6F70656E2F636C6F73652077696E64F4
:100312006F77203100322E6F70656E2F636C6F73B2
:10032200652077696E646F77203220332E61757491
:100332006F2073657474696E67206F6E00707265EA
:10034200737320616E79206B657900312E7475723A
:100352006E206F6E2F6F66662074686520636F6F04
:100362006C696E67207379732E00322E7475726E0B
:10037200206F6E2F6F6666207468652068656174F1
:10038200696E67207379732E20332E6175746F2026
:1003920073657474696E67206F6E0048203D005467
:1003A200203D2000250080C001002D4E414E004915
:1003B2004E4600000800040066000C0068026E0051
:1003C20002008802A80301008F02AA030000F89429
:1003D200EE27ECBBF1E0FBBFEBBFE5BF8DE0A2E097
:1003E200BB27ED938A95E9F780E098E0A0E6ED93CC
:1003F2000197E9F7E6EBF3E085919591009761F0BB
:10040200A591B59105901590BF01F00105900D924F
:100412000197E1F7FB01F0CFEFE5EDBFE8E0EEBFBA
:10042200C0E6D2E00C94EC028E9A9698A4E1B0E079
:100432000E94920A969A08958E988699FECF869B7C
:10044200FECF8699FECF08951A930A9300E010E03A
:100452000830E0E01E0794F4869BFECF8AE08A957E
:10046200F1F7869B05C0EB2DEE0FE160BE2E01C0B9
:10047200BB0C8699FECF0F5F1F4FEACFEB2D099180
:1004820019910895BA93AA93AC81BD810E9405097E
:10049200AA81BB810E940D094DC0BA93AA93A8817B
:1004A200B981EC91F0E03196DF010E94050912C09A
:1004B200BA93AA93E881F981E181F0E03196DF01F4
:1004C2000E940D09E881F981E181E03019F4A881E7
:1004D200B981E3DF229608951A930A93A2E0B0E06D
:1004E2000E94FF088F01EC81D801EC93ED81D801C5
:1004F2001196EC93F801A181EB81AE1748F4D80173
:100502001196EC91E45CEC93D801EC91E150EC9300
:10051200F801A181EB810E94E70BEA1BD801119639
:10052200EC93D801EC91AA81EA1BD801EC93F80173
:10053200198108812696089522971A930A93EE81CB
:10054200A885EA173CF0EA1721F4EF81A985EA179A
:100552000CF01FC0E885F9850E94160921F4F80104
:10056200A181A03021F0D801AC91A0301CF4E1E0CF
:10057200F0E02DC0EC81FD81FA93EA93E885F985DC
:100582000E9423091CF4E1E0F0E021C0E0E0F0E089
:100592001EC0EE81FF810E94160921F4F801A1819B
:1005A200A03021F0D801AC91A0301CF4E0E0F0E0E2
:1005B2000EC0EC81FD81FA93EA93EA85FB850E94E5
:1005C20023091CF4E0E0F0E002C0E1E0F0E0198170
:1005D20008812A9608950E942C090E9432090E94DD
:1005E20038090E9442090E944C090E9453090E9444
:1005F2005309A2E6B2E046DF0E9453090E9458095D
:10060200A4E6B2E03FDF0E945309E2E0F0E00E947C
:100612005D097894A8E20E94A3080E945308E0EFC3
:10062200EABBEBB3EE60EBBBEBB3EF70EBBBEBEB18
:10063200E1BBE4E4E2BBEFEFE7BBE5B7E260E5BFB5
:10064200EBB7E064EBBFE9B7E560E9BFE5E0EEBD1B
:10065200EEE1ECBDEBE1EDBDE5E0E3BFE0E0E2BFE2
:10066200E8EEE6B9E6B1E760E6B9992009F0BFC065
:100672000E946309AAE7B0E00E9490080E946A09FA
:10068200E9F30E9432090E947009119759F40E94FD
:10069200630913D40E9475090E946A09E9F30E9452
:1006A2003209E3CF0E947009129701F50E94630993
:1006B200A3ECB0E00E9479090E945309A09178024C
:1006C200B09179020E948009A8ECB0E00E947909F9
:1006D2000E945809A0917A02B0917B020E94870978
:1006E2000E946A09E9F30E943209BFCF0E94700991
:1006F2001397E1F40E946309ADECB0E00E948A090D
:100702000E9453090E9491090E948009ACEDB0E059
:100712000E948A090E9458090E9496090E9487092C
:100722000E946A09E9F30E9432099FCF0E94700970
:100732001497C1F40E946309ABEEB0E00E949008E6
:10074200E1E1F0E0FA93EA930E945309A091760264
:10075200B09177020E9487090E946A09E9F30E9418
:10076200320983CF0E947009159759F40E946309D8
:10077200D9D30E9475090E946A09E9F30E943209DD
:1007820074CF0E947009169751F523970E9463094E
:100792000E949B090E94A5090E94A909E091650295
:1007A2000E94AC090E94B0090E94B5090E94B909D1
:1007B2000E94BE090E94AC090E94A909E091670249
:1007C2000E94AC090E94B0090E94B5090E947509F5
:1007D2000E946A09E9F30E943209239646CF0E94D9
:1007E20070091A9719F4E1E09E2E3FCF26C2E1E08C
:1007F200E815D1F52297E0E0E883E9830E94320907
:100802000E94C5090E946309A9E2B1E00E94900812
:100812000E94CB090E94B9090E9470091B9721F01E
:10082200A881B9811A970CF012C00E946A09E9F3F3
:100832000E9432090E9470091B9711F00E94D5098B
:10084200ACE3B1E00E9490080E94F609E5CF0E9455
:10085200FC09A930E0E0BE07E0E08E07E0E09E0779
:1008620009F488242296E9C10E9432090E94630990
:10087200AEE3B1E00E9490080E946A09E9F30E9487
:1008820032090E947009119709F03AC10E94630966
:10089200ADE8B1E00E94050A0E946A09E9F30E94EC
:1008A20032090E947009119799F40E946309442445
:1008B2000E94080A119731F495980E942C09AEED16
:1008C200B1E004C00E940D0AAFEEB1E00E949008B0
:1008D2000E947009129799F50E946309E1E0E515FB
:1008E20031F55524E0917402F0917502A9E0B0E06F
:1008F2000E948A0B3096E0937602F0937702AFEF74
:10090200B1E00E94150A0E946A09E9F30E943209C5
:100912000E947009EAE0F0E00E94C70B0E94080AF8
:100922000E948A0BE0937602F093770208C0E1E01E
:100932005E2E0E944C09AAE3B2E00E9490080E9437
:100942007009139779F40E946309E1E0E41521F438
:100952004424ADE5B2E004C0E1E04E2EA1E7B2E0EE
:100962000E9490080E947009149709F0C3C0299749
:10097200E0E0E883E983EC83ED83EA83EB830E9482
:100982006309A4E8B2E00E94150A0E94CB09EEE1D5
:100992000E94180AA881B9811297BCF40E946A09C0
:1009A200E9F30E9432090E9470091B9721F00E940C
:1009B20070091A9709F405C00E94D5090E941C0A01
:1009C20001C003C00E94F609E5CF0E942A0A0E94D4
:1009D200CB09A881B9811297BCF40E946A09E9F394
:1009E2000E9432090E9470091B9721F00E9470092F
:1009F2001A9709F405C00E94D5090E941C0A01C079
:100A020003C00E94F609E5CF0E943B0AFA93EA93DB
:100A1200A4E6B2E037DD0E946309A2ECB2E00E94D4
:100A2200150A0E94CB09E0E0E883E9830E943209BB
:100A3200EEE10E94180AA881B9811297BCF40E94C3
:100A42006A09E9F30E9432090E9470091B9721F09A
:100A52000E9470091A9709F405C00E94D5090E94E4
:100A62001C0A01C003C00E94F609E5CF0E942A0AAF
:100A72000E94CB09A881B9811297BCF40E946A092D
:100A8200E9F30E9432090E9470091B9721F00E942B
:100A920070091A9709F405C00E94D5090E941C0A20
:100AA20001C003C00E94F609E5CF0E943B0A0E94E2
:100AB2005D090E9463090E949B090E944B0A0E94E1
:100AC2004F0AE09165020E94530A0E94570A0E944F
:100AD200B5090E94B9090E94BE090E94530A0E94E8
:100AE2004F0AE09167020E94530A0E94570A0E942D
:100AF200B50929960E946A09E9F30E943209B5CD27
:100B02000E9470091397D9F50E946309A1E0B3E02E
:100B12000E945C0AA7E1B3E00E94150A0E94C5097F
:100B22000E946A09E9F30E9432090E947009119732
:100B320059F4A0917802B09179020E945F0AE09381
:100B42007802F093790266240E947009129749F4A0
:100B5200A0917A02B0917B020E945F0A0E94640A0D
:100B620066240E947009139711F4E1E06E2E0E9430
:100B7200690A0E946A09E9F30E94320976CD0E944D
:100B82007009129709F049C00E946309ADE4B3E00D
:100B92000E945C0AACE6B3E00E94150A0E94C509F5
:100BA2000E946A09E9F30E9432090E9470091197B2
:100BB20089F40E9491090E945F0A0F010E9496091E
:100BC2000E945F0AD0010E948A0BE0937C02F0939C
:100BD2007D0277240E947009129789F40E94960977
:100BE2000E945F0A0F010E9491090E945F0AD001D0
:100BF2000E948A0BE0937E02F0937F0277240E9488
:100C02007009139711F4E1E07E2E0E94690A0E9496
:100C12006A09E9F30E94320928CD0E9470091497EB
:100C220061F40E945308E1E05E2E4E2E7E2E6E2E5F
:100C320099248E2E0E94320918CD17CDFFCF0E9423
:100C42006E0AF2DBF9DB00DCAE2EFEDBDE2EFCDB15
:100C5200CE2EFADBE0936002F7DBE0936102E4E17F
:100C6200EA93EEE1EA93E2E3EA93A0E56FD1E09141
:100C72007E02E03011F4909801C0909AE0917C02DB
:100C8200E03011F4919801C0919AE0917802E0303D
:100C920011F4939801C0939AE0917A02E03011F432
:100CA200949801C0949AE0916402F0916502FA93DB
:100CB200EA93E0916602F0916702FA93EA93A42D17
:100CC200DED088C00E946E0AEEE1ECBDEBE1EDBD24
:100CD200A2E6B2E0EDDB7EC08A93AA93BA93EA93CE
:100CE200FA93EFB7EA930E94EB0BE1E0F0E0E093B6
:100CF2008002F0938102EFEFE7BBEAB3E06FEABB59
:100D0200EAB3E17FEABBEBB3EF70EBBBEBB3EE60B0
:100D1200EBBB82E08A95F1F7E9B3EF705E2FEAB39D
:100D2200EE60EABBEAB3EF70EABBEBB3E06FEBBB9A
:100D3200EBB3E17FEBBB82E08A95F1F7E9B3E07FA9
:100D4200E1605E2B00E010E00C30E0E01E077CF476
:100D5200A8E6B2E0A00FB11FAC915A1729F4009394
:100D620082021093830203C00F5F1F4FEDCF0E94D8
:100D7200F20B2696E991EFBFF991E991B991A99108
:100D8200899118950E946E0A24971A930A93E4B1E6
:100D9200AE2FE5B1FE2FE0E0EA2B8F011370D801F0
:100DA20027D0FF27662777270E94C10AEA83FB83A1
:100DB2006C837D83E1E0E51521F40E94080A119716
:100DC20009F002C00E944C090E947509369A1981E5
:100DD20008812696E991EFBFF991E991B991A9911C
:100DE2009991899179916991F99019900990189541
:100DF200BA93AA9324971A931FEFED81FE810E9462
:100E02005D0B0E94C10A0E947C0AE981FA816B8112
:100E12007C81A0E0B0E080EE91E40E94F40A0E949E
:100E22007C0AAC81AA2372F01F5FE981FA816B818F
:100E32007C81A0E0B0E080EF90E40E94F40A0E947E
:100E42007C0AEFCFE12F188127960895BA93AA93CF
:100E52002597E985EA93A8850E9442080E94B50970
:100E6200E985EA93A8850E944208ED81FE81FA9302
:100E7200EA930E94A5090E94A9092B960895AA93B4
:100E8200A881A130C9F4EB81FC81FA93EA93EB814A
:100E9200FC81FA93EA93E0916202F0916302FA9381
:100EA200EA934ADBE130A0E0FA0719F40E940D0A46
:100EB20003C095980E942C0933C02597E0E00E9458
:100EC200810AADE9B3E00E945C0AA1EAB3E00E94A4
:100ED2009008EA2D0E94AC09E4E00E94810A0E9477
:100EE200A909ABE5B2E00E949008ED2D0E94AC0981
:100EF2000E94A909A6EAB3E00E949008EC2D0E9484
:100F0200AC09E4E00E94180A0E94A909ABE5B2E02C
:100F12000E949008E09160020E94AC090E94A90917
:100F2200259608952397E0E20E94810AE0916202E9
:100F32000E94AC090E94A909E09163020E94AC09D7
:100F42000E94B0090E94B5090C94A108AA93E881F5
:100F5200EA1548F0E981AE1630F0EA81EC1518F096
:100F6200EB81CE1608F40AC0E1E0E71511F40E9405
:100F72004209E1E0E61511F40E943809E881EA1518
:100F820030F4EA81EC1518F0EB81CE1608F411C0AA
:100F9200E1E0E71511F40E944209E1E0E61549F4A7
:100FA200E0E0E0937802E0937902E1E0F0E00E9471
:100FB200640AE981AE1630F4EA81EC1518F0EB818F
:100FC200CE1608F410C0E1E0E71511F40E944209C0
:100FD200E1E0E61541F4E1E0F0E0E0937802F0931D
:100FE20079020E94640AEB81CE1698F4E1E0E715DB
:100FF20059F4E0E0E0937C02E0937D02E1E0F0E06E
:10100200E0937E02F0937F02E1E0E61511F40E9484
:101012003809EA81EC1598F4E1E0E71559F4E1E0CA
:10102200F0E0E0937C02F0937D02E0E0E0937E0248
:10103200E0937F02E1E0E61511F40E94380924965C
:101042000895AA93E5B3EF70AE2FE881E07FEA2B13
:10105200E5BB82E08A95F1F7AA9A82E08A95F1F7D8
:10106200AA9882E08A95F1F799C0AA93A881E9DF4C
:10107200E881E295E883A881E4DF81E18A95F1F7CE
:101082008DC0AA93E881F0E0E857FD4FE081A98185
:10109200AE0FEBDFE981E0938C02E881E0938D02F1
:1010A2000C940309A2E00E94850AACE0DEDFA1E015
:1010B2000E94850AE0E0E0938D02E0938C0208959D
:1010C200AA93A881AA3031F0E0918E02A0918C02FD
:1010D200AE1760F0E0E0EA93A0918D02AF5FA093BB
:1010E2008D02CFDFA881AA3009F458C0E0918C02AA
:1010F200EF5FE0938C02A89AA881B7DFA8984EC050
:10110200BA93AA931A93A981BA81ED91A983BA835A
:101112001E2FE03019F0A12FD3DFF5CF10C0BA9304
:10112200AA931A93E981FA813196E983FA83319776
:10113200E4911E2FE03019F0A12FC2DFF3CF188106
:1011420023960895AA93E4B3E06FE4BBA29AA09A0F
:10115200A19AAA98A898A998E881E0938E02E058EB
:10116200E0938A02E881E054E0938B02A4E1B0E0CC
:101172000E94920A0E948B0A0E948B0A0E948B0A8A
:10118200A0E25FDF81E28A95F1F7A8E26EDFA4E0D8
:101192006CDFA5E86ADFA6E068DF84DF21960895A8
:1011A200BA93AA93A991B991E991F99130962AF447
:1011B200E095F09531966DE26D93E89480E197E2C7
:1011C2000DD088EE93E00AD084E6992707D08AE012
:1011D20005D06E2F10D066276C9308956627E81706
:1011E200F90720F06395E81BF90BC9F7662311F4A0
:1011F20016F008956894605D6D930895BA93AA936A
:10120200E0E0F0E022960895E8E1F0E00E94C70BEA
:10121200A881B981EC930895ECE3F0E00E94C70B3A
:10122200A881B9811196EC930895FA93EA93EE811D
:10123200FF81FA93EA930E946D028F01D801AC916B
:10124200A0300895FA93EA930E946D028F01D801AB
:10125200AC91A0300895E0E0E0937402E09375024F
:101262000895E0E0E0938002E09381020895E0E0D7
:10127200E0937802E0937902E0937A02E0937B02B2
:101282000895E0E0E0937C02E0937D02E0937E0229
:10129200E0937F020895EAE0F0E0E0937602F093B3
:1012A20077020895E0E0F0E0FA93EA930895E1E02E
:1012B200F0E0FA93EA930895FA93EA93A6E6B2E08D
:1012C2000C9443020E945308E0E0EA93A0E00C94DD
:1012D2004208E0918002F091810230970895A09136
:1012E2008202B09183020895AAE0B0E00C94920ABF
:1012F2000E949008E5E0F0E0FA93EA9308950E94D4
:101302002707E0E0EA93A1E00C9442080E94270735
:10131200EBCF0E949008E4E1F0E0FA93EA9308959B
:10132200A0917C02B0917D020895A0917E02B091BD
:101332007F020895A9EFB0E00E949008E091640254
:10134200F0E0FA93EA930895DE0112960C94D10824
:10135200DE010C948108F0E0FA93EA93F5CFAEE057
:10136200B1E00E949008F4CFA0E1B1E00C949008A3
:10137200E0E0EA93A1E00C944208A3E1B1E00E940C
:101382009008E09166020895E0E0E0938202E09323
:1013920083020895E0E0E0938402E0938502E09303
:1013A2008602E09387020895E0918402F09185021B
:1013B2006091860270918702AAE0B0E080E090E03E
:1013C2000E946A0BDF01CB01E0918202F09183025D
:1013D2000E945D0B0E94460BE0938402F09385020B
:1013E20060938602709387020895E881F9813196AD
:1013F200E883F9830895A0918402B09185028091D7
:1014020086029091870208950E9490086DCFA09164
:101412007402B09175020895959AE1E0F0E0E093CC
:101422007402F093750208950E9490081ACFEA930D
:10143200A1E00C944208E0918202F0918302FA93B7
:10144200EA93DE0118960E94D108DE0116960C94EA
:101452008108AEE0B1E00E949008CDDFE8E1F0E063
:1014620060E070E00E94D50BEC83FD83E0E0E8834E
:10147200E983F7CEC0DFECE3F0E060E070E00E94C9
:10148200D50BEA83FB83EC81FD81FA93EA93EC812D
:10149200FD810895DE0118960C94D108DE0116969E
:1014A2000C948108F0E0FA93EA93F4CFAEE0B1E055
:1014B2000E949008F3CF0E9490085ACFE1E0F0E03A
:1014C200EA1BFB0B0895E0937A02F0937B020895E6
:1014D2000E945308AFE3B3E097CF0A921A92FA92AE
:1014E2006A937A938A939A93AA93BA93EA93FA9312
:1014F200EFB7EA930895E983FA836B837C830895B7
:10150200EA93A0E00C9442080E943608A3E0B0E0FF
:101512000C94920AA0E30E94220881E28A95F1F7D4
:101522000895109639F08AEF90E00197F1F7A895A7
:101532001197C9F7089550E8572711F45F9393C0A4
:101542005F3F31F0660F000C57956795752F089530
:101552005F9300200AF093C08CC050E8192E152228
:10156200880F991F9527550F879550E8072E05225A
:10157200660F771F7527550F67950895689401C008
:10158200E894309760407040B1F0002426F0772351
:1015920012F4009483D0172E7EE1112032F07A9556
:1015A200EE0FFF1F661F111CF9CFEF2FF62F612DD3
:1015B2005F93C1DF5F9108954F93AF01FD01DA019F
:1015C200AB01BC01CA01402D012C142E4F9108958C
:1015D200EA0FFB1F681F0895E095F0956095EF5F95
:1015E200FF4F6F4F08955F93B8DF903849F150E88D
:1015F2001526703821F1572F591B2BF112F4DCDF1D
:10160200FACF583118F0AA27BB278827583028F07C
:10161200AB2FB82F88275850F9CF552329F086953C
:10162200B795A7955A95D9F7502D512572F0D0DF6D
:1016320038F46795F795E795739513F420C0BCDFEE
:101642007ADF5F910895D8F7FBCFEA1BFB0B680B9B
:1016520051F010F40094C0DF662392F3EE0FFF1FE7
:10166200661F7A95CBF7EE27FF27662777275F91CC
:101672000895EFEFFFEF6FE77FEF5F910895EFEFD0
:10168200FFEF6FE77FE75F910895EA0FFB1F681F87
:10169200791F0895F195E195F0400895F0956095D0
:1016A2007095E195FF4F6F4F7F4F0895FE2FFF0F0B
:1016B200FF0B6F2F7F2F08956F2F660F660B762F0C
:1016C2000895FA9FF02DEB9FF00DEA9FE02DF10DAA
:1016D20008957A9F702D6B9F700DF89F700DE99F92
:1016E200700D6A9F602D710DFB9F600D711DE89F4B
:1016F200600D711D8827FA9FF02D610D781FEB9FF9
:10170200F00D611D781FEA9FE02DF10D681F781F13
:1017120008954ED0D6DF0EF4BDDF089500241124C3
:1017220090E1AA0FBB1F001C111C0E1A1F0A18F40D
:101732000E0E1F1E01C0A1609A9599F7FD01D001FE
:1017420008953F934F935F93002411244427552714
:1017520030E2AA0FBB1F881F991F001C111C441FD7
:10176200551F0E1A1F0A460B570B28F40E0E1F1E8A
:10177200461F571F01C0A1603A9559F7FD01BC01F0
:10178200D001CA015F914F913F910895E894B7FF4C
:1017920004C0A095B09511966894F7FD7BDFBEDF7B
:1017A200FD010EF477DF0895CCDFFD01BC01089541
:1017B200E894F7FF02C06EDF6894B7FF06C0A095F9
:1017C200B095119600F8039400FA08951A2EAE2FE0
:1017D200E12D08955A934A933A932A931A930A93BE
:1017E20008955D814C813B812A8119810881089588
:00000001FF
